:0400000055EF00F0C8
:10000800FC0B3E0B440B4A0BFC0BFC0BFC0BFC0BD8
:10001800FC0BFC0BFC0BFC0BFC0BFC0BFC0BFC0BA0
:10002800FC0BFC0BFC0BFC0BFC0BFC0BFC0BFC0B90
:10003800FC0BFC0BFC0BFC0B7C0B410AFC0BFC0BBC
:10004800FC0BFC0BFC0BFC0BFC0BFC0BFC0BFC0B70
:10005800FC0BFC0BFC0BFC0BFC0BFC0BFC0BFC0B60
:10006800FC0BFC0BFC0BFC0BFC0BFC0BFC0BFC0B50
:10007800FC0BFC0BFC0BAA08220918072E062A0009
:10008800FC0BFC0BFC0BFC0BFC0B2A002A002A00C7
:10009800FC0BFC0BFC0BFC0BFC0BFC0BFC0BFC0B20
:0600A800FF00EDEF12F075
:10150000002A22A0270000000042260000CA2EBCAC
:1015100029662C00006A25FC267C2FCA2FF02E5647
:101520002D0000842C0000942BD62F8C2E00003A26
:101530002F00000005016E6F76EF0BF01F0EF66EA8
:10154000150EF76EF86A0900F5C41DF50900F5C41B
:101550001EF502D8B5EF0AF00500FA6E1D50FD6EBB
:101560001E50FE6EFF6AFA5012000009D8A4BBEFAD
:101570000AF0BDEF0AF098EF0BF0010E276E98EF1E
:101580000BF02750D8B4C7EF0AF0C9EF0AF0E5EF27
:101590000AF01B0EF66E150EF76EF86A0900F5C418
:1015A0001DF50900F5C41EF502D8E0EF0AF00500AC
:1015B000FA6E1D50FD6E1E50FE6EFF6AFA5012004C
:1015C000286E000E276E98EF0BF02A0E2824D96E95
:1015D000DA6A050EDA221B0EF66E150EF76EF86A41
:1015E0000900F5C41DF50900F5C41EF502D802EF87
:1015F0000BF00500FA6E1D50FD6E1E50FE6EFF6A68
:10160000FA501200DF6E282A090E28640AEF0BF048
:101610000CEF0BF098EF0BF0000E286E98EF0BF02C
:10162000190EF66E150EF76EF86A0900F5C41DF571
:101630000900F5C41EF502D82EEF0BF00500FA6E76
:101640001D50FD6E1E50FE6EFF6AFA502A0E2824B1
:10165000D96EDA6A050EDA22DF501200282A090E46
:10166000286435EF0BF037EF0BF098EF0BF00CEF31
:101670000BF0000E286E1D0EF66E150EF76EF86A52
:101680000900F5C41DF50900F5C41EF502D852EF96
:101690000BF00500FA6E1D50FD6E1E50FE6EFF6AC7
:1016A000FA50120005016F6F6F05D8A45AEF0BF0C6
:1016B0005CEF0BF05EEF0BF098EF0BF0020E6F1982
:1016C000D8A465EF0BF067EF0BF069EF0BF098EF24
:1016D0000BF0030E6F19D8A470EF0BF072EF0BF044
:1016E00074EF0BF098EF0BF098EF0BF005016E51D3
:1016F0001D6E1E6A1E50000AD8B481EF0BF098EFE1
:101700000BF01D50010AD8B49EEF0AF0030AD8B4BA
:10171000C1EF0AF0010AD8B410EF0BF0070AD8B4F1
:101720000CEF0BF0010AD8B439EF0BF098EF0BF087
:10173000010E12000101EAA5A0EF0BF0A2EF0BF0E1
:10174000B6EF0BF0000EEA6FE585ED69EE6902D8A1
:10175000B4EF0BF00500FA6E2350FD6E2450FE6EC0
:10176000FF6AFA50040E120059EF0CF0EAA7BBEF23
:101770000BF0BDEF0BF009EF0CF0EA9756EC17F009
:101780001CC525F51DC526F5000E296E02D8D3EF20
:101790000BF00500FA6E2350FD6E2450FE6EFF6ABA
:1017A000FA50010E1200E806D8A4D9EF0BF0DBEFD7
:1017B0000BF005EF0CF00101E4A9E1EF0BF0E3EF12
:1017C0000BF001EF0CF0E5ABE8EF0BF0EAEF0BF0FC
:1017D00001EF0CF002D8F7EF0BF00500FA6E235082
:1017E000FD6E2450FE6EFF6AFA50030E12000009CF
:1017F000D8A4FDEF0BF0FFEF0BF001EF0CF00101AF
:10180000E78D0101E79D59EF0CF00101E78D59EFDC
:101810000CF0E4A90EEF0CF010EF0CF037EF0CF029
:10182000E5AB15EF0CF017EF0CF059EF0CF0E7BB40
:101830001CEF0CF01EEF0CF059EF0CF002D82BEF60
:101840000CF00500FA6E2350FD6E2450FE6EFF6A08
:10185000FA50030E12000009D8A431EF0CF033EF58
:101860000CF059EF0CF00101E78D59EF0CF0E5A1F8
:101870003CEF0CF03EEF0CF059EF0CF002D84BEFC0
:101880000CF00500FA6E2350FD6E2450FE6EFF6AC8
:10189000FA50020E1200E806D8A451EF0CF053EFF4
:1018A0000CF057EF0CF00101E79D59EF0CF001012E
:1018B000E78D0101E6991200FAC40DF5FBC40EF59F
:1018C000F6C40FF5F7C410F5F8C411F5F5C412F518
:1018D000E2EC17F0E806D8A470EF0CF072EF0CF011
:1018E00076EF0CF0B0EC0EF006EF0DF0050198511C
:1018F000D8B47DEF0CF07FEF0CF002EF0DF0D7ECD9
:1019000016F00009D8B487EF0CF089EF0CF092EFD5
:101910000CF0030E0501A46F0101EC9BA2EC14F086
:10192000E9EF0CF0E2EC16F00009D8B49AEF0CF0F5
:101930009CEF0CF0B7EF0CF0B6EC16F00009D8A451
:10194000A4EF0CF0A6EF0CF0AEEF0CF00101ECA947
:10195000ACEF0CF0AEEF0CF0B7EF0CF0010E0501A0
:10196000A46F0101EC99A7EC17F0E9EF0CF0C1ECC2
:1019700016F00009D8B4BFEF0CF0C1EF0CF0DAEFAD
:101980000CF0B6EC16F00009D8A4C9EF0CF0CBEFC0
:101990000CF0D3EF0CF00101ECA9D1EF0CF0D3EF78
:1019A0000CF0DAEF0CF0020E0501A46F0101EC99C6
:1019B000B3EF0CF0CCEC16F00009D8B4E2EF0CF069
:1019C000E4EF0CF0E9EF0CF0040E0501A46F010147
:1019D000EC9D0501A451D8B4F0EF0CF0F2EF0CF03F
:1019E00006EF0DF0000E986F02D800EF0DF0050025
:1019F000FA6EB651FD6EB751FE6EFF6AFA501200D4
:101A000006EF0DF00101EC99EC9DEC9B12C5F5F48D
:101A100011C5F8F410C5F7F40FC5F6F40EC5FBF4C4
:101A20000DC5FAF411000501ADBF1FEF0DF0AD516A
:101A300008E1AC05D8A01FEF0DF021EF0DF09EEFEF
:101A40000DF0000E06011B6F000E1A6F1AC607F686
:101A50001BC608F6000E0A6F050E096FB6EC15F0EE
:101A6000BA0E06010725D96E050E0821DA6EDE5082
:101A7000DE10D8B43EEF0DF040EF0DF08BEF0DF01F
:101A80001AC607F61BC608F6000E0A6F050E096F88
:101A9000B6EC15F0BE0E06010725D96E050E08211D
:101AA000DA6EDF50D8A457EF0DF059EF0DF08BEF41
:101AB0000DF01AC607F61BC608F6000E0A6F050ED3
:101AC000096FB6EC15F0BA0E06010725146F050E66
:101AD0000821156F1AC607F61BC608F6000E0A6F16
:101AE000050E096FB6EC15F0BA0E06010725D96E82
:101AF000050E0821DA6EDEC418F6DDC419F602D828
:101B00008BEF0DF00500FA6E1851FD6E1951FE6E47
:101B1000FF6AFA50120006011A4B1B2B1BBF9AEFEB
:101B20000DF01B5109E1030E1A5DD8A09AEF0DF0DC
:101B30009CEF0DF026EF0DF013EF0DF022EC17F0F7
:101B400013EF0DF012000501976F14EF0EF0E2ECA9
:101B500017F00009D8A4AFEF0DF0B1EF0DF0BDEF15
:101B60000DF0240E05018B6F230E8C6FD40E8D6F3C
:101B7000050E8E6F010EE8EC0FF095BAC2EF0DF076
:101B8000C5EF0DF0010EC6EF0DF0000EFF0A0501C6
:101B9000956F953B954795509519DF0B9519956E67
:101BA0002EEF0EF0E2EC17F00009D8A4DAEF0DF0FA
:101BB000DCEF0DF0E8EF0DF0240E05018B6F230E26
:101BC0008C6FD30E8D6F050E8E6F010EE8EC0FF04B
:101BD00095B8EDEF0DF0F0EF0DF0010EF1EF0DF017
:101BE000000EFF0A0501956F953B95509519EF0B77
:101BF0009519956E2EEF0EF0E2EC17F00009D8A4BF
:101C000004EF0EF006EF0EF02EEF0EF0240E05019D
:101C10008B6F230E8C6FD30E8D6F050E8E6F010EA2
:101C2000E8EC0FF02EEF0EF005019751956F966BD3
:101C30009651000AD8B41FEF0EF02EEF0EF095511A
:101C4000000AD8B4A7EF0DF0010AD8B4D2EF0DF016
:0E1C5000030AD8B4FCEF0DF02EEF0EF01200D8
:101C6000FAC404F5FBC405F5F6C406F5F7C407F598
:101C7000F8C408F5F5C409F5E2EC17F0E806D8A4B5
:101C800044EF0EF046EF0EF04AEF0EF09AEC0BF038
:101C9000A3EF0EF005019851D8B451EF0EF053EFB9
:101CA0000EF09EEF0EF00101EBA559EF0EF05BEF89
:101CB0000EF066EF0EF0EAA560EF0EF062EF0EF0A8
:101CC00066EF0EF03EEC14F0A3EF0EF0EBAF6BEF0F
:101CD0000EF06DEF0EF08AEF0EF0EAAF72EF0EF03D
:101CE00074EF0EF08AEF0EF00501A351D8B47BEF2C
:101CF0000EF07DEF0EF086EF0EF0000EA36F0101E7
:101D0000EA91EA9F42EC15F0A3EF0EF0A7EC17F072
:101D100062EF0EF0EBA38FEF0EF091EF0EF0A3EF5A
:101D20000EF0EAA396EF0EF098EF0EF0A3EF0EF090
:101D3000DCEC17F00101EA93A3EF0EF0000E0101B5
:101D4000EA6FA3EF0EF009C5F5F408C5F8F407C56E
:101D5000F7F406C5F6F405C5FBF404C5FAF4110062
:101D60000101ECABB6EF0EF0B8EF0EF0CBEF0EF0DA
:101D7000010E296E02D8C7EF0EF00500FA6E23504F
:101D8000FD6E2450FE6EFF6AFA50050E120001012E
:101D9000EC9B2AEF0FF0E5AFD0EF0EF0D2EF0EF094
:101DA000E5EF0EF0020E296E02D8E1EF0EF005000D
:101DB000FA6E2350FD6E2450FE6EFF6AFA50050E37
:101DC00012000101E59F2AEF0FF0E7A5EAEF0EF000
:101DD000ECEF0EF0FFEF0EF0030E296E02D8FBEFD2
:101DE0000EF00500FA6E2350FD6E2450FE6EFF6A61
:101DF000FA50050E12000101E7952AEF0FF0E7A354
:101E000004EF0FF006EF0FF019EF0FF0040E296E3C
:101E100002D815EF0FF00500FA6E2350FD6E245026
:101E2000FE6EFF6AFA50050E12000101E7932AEFD9
:101E30000FF0050E296E02D828EF0FF00500FA6E9C
:101E40002350FD6E2450FE6EFF6AFA50050E1200FC
:101E50000101E597EC99E6991200000E936E800E51
:101E6000946E110E956E170E8D6E000E8E6EC20E54
:101E70008F6E030E0401166F000E206F000E2A6F86
:101E8000000E176F000E216F000E2B6F000E186FE3
:101E9000E00E226F390E2C6F370E196FE00E236F94
:101EA000FB0E2D6F3F0E1A6FE00E246FFB0E2E6F90
:101EB000200E0301126F200E136F000E156F000E1F
:101EC000166F210E0F6F210E106F110E526F020E42
:101ED000536F170E546F0E0EAD6F1C0E276F0D0E45
:101EE000AE6F1D0E266F000E04011B6F000E1C6FDF
:101EF000000E1D6F000E576F000E586F000E596FC9
:101F0000000E256F000E266F000E276F400E2F6FFC
:101F1000400E306F000E316FF20E0601076F2F0E6C
:101F2000086F8EEC17F076881200000E06010E6F17
:101F3000000E0D6F0DC607F60EC608F6000E0A6FEE
:101F4000050E096FB6EC15F0BA0E06010725D96E1D
:101F5000050E0821DA6EDE6ADD6A0DC607F60EC6CA
:101F600008F6000E0A6F050E096FB6EC15F0BC0EF0
:101F700006010725D96E050E0821DA6EDE6ADD6AD4
:101F80000DC607F60EC608F6000E0A6F050E096F9D
:101F9000B6EC15F0BE0E06010725D96E050E082118
:101FA000DA6EDF6A0D4B0E2B0EBFE0EF0FF00E5115
:101FB00009E1030E0D5DD8A0E0EF0FF0E2EF0FF0A6
:101FC0009AEF0FF0000E0501AD6F000EAC6F12001E
:101FD0000501946F010E0501936F9451050DBA0E22
:101FE000F324D96E050EF420DA6EDE50DE10D8B47C
:101FF000FCEF0FF0FEEF0FF010EF10F09451050D15
:10200000BE0EF324D96E050EF420DA6EDF50D8A48C
:102010000CEF10F00EEF10F010EF10F0000E936FB9
:1020200093C591F5926B9451050DBA0EF324D96EB8
:10203000050EF420DA6E8BC5DEF48CC5DDF4945108
:10204000050DBC0EF324D96E050EF420DA6E8DC595
:10205000DEF48EC5DDF49451050DBE0EF324D96E69
:10206000050EF420DA6EDF6A9151AC279251AD2350
:10207000120006010C6F000E06010B6F0C51050DCE
:10208000BA0EF324D96E050EF420DA6EDE50DE109F
:10209000D8B44DEF10F04FEF10F061EF10F00C518D
:1020A000050DBE0EF324D96E050EF420DA6EDF5056
:1020B000D8A45DEF10F05FEF10F061EF10F0010EAB
:1020C0000B6F0BC609F60A6B0C51050DBA0EF32403
:1020D000D96E050EF420DA6EDE6ADD6A0C51050D4C
:1020E000BC0EF324D96E050EF420DA6EDE6ADD6ACA
:1020F0000C51050DBE0EF324D96E050EF420DA6ED8
:10210000DF6A09510501AC5F06010A510501AD5BAB
:1021100012000601026F89A290EF10F092EF10F00A
:10212000B1EF10F00501A851A65DA951A759D8A09B
:102130009CEF10F09EEF10F0ADEF10F002D8ABEF77
:1021400010F00500FA6E06010051FD6E0151FE6EA1
:10215000FF6AFA501200D0EF10F0F0EC15F0D0EF5B
:1021600010F00501A64BA72BAA51A65DAB51A759AC
:10217000D8A0BDEF10F0BFEF10F0D0EF10F0F0ECF2
:1021800015F002D8D0EF10F00500FA6E0501AE513F
:10219000FD6EAF51FE6EFF6AFA5006010251120049
:1021A0001200618A000E61BE010E0601096F619E78
:1021B000550E606EAA0E606E6090000E686E000E86
:1021C000676E080E666E550E606EAA0E606E6080B9
:1021D00009B102D0619E01D0618E7D827D847D86B1
:1021E0008088808A84868488848A848C69926190BD
:1021F000F40E0601076F2F0E086FA2EC17F0738222
:1022000069946192F60E0601076F2F0E086F98EC25
:1022100017F0738469966194F80E0601076F2F0E0C
:10222000086F93EC17F073861200040E0101E66F3D
:10223000800EE76F080EE86F000EE96F020EF96F6F
:10224000000EEA6F000EEB6F000EEC6FEC83EC817A
:10225000000EED6F000EEE6F0F0EF86F000EFA6FAE
:10226000A0EC16F00101EB91EB95E68F050EE82E40
:10227000FED7000000000000000000000000000089
:102280000101EA91EA95EB85EE0E0601076F2F0E2C
:10229000086F33EC16F0EC0E0601076F2F0E086F77
:0622A00024EC16F0120010
:1022A800FAC416F5FBC417F5F6C418F5F7C419F502
:1022B800F8C41AF5F5C41BF5E2EC17F0E806D8A443
:1022C80068EF11F06AEF11F06EEF11F09AEC0BF075
:1022D80085EF11F005019851D8B475EF11F077EF3B
:1022E80011F083EF11F0E8EC17F09FC5D9F4A0C501
:1022F800DAF4DF6E05019F4BA02B85EF11F0E8ECB7
:1023080017F01BC5F5F41AC5F8F419C5F7F418C584
:10231800F6F417C5FBF416C5FAF41100060120EE11
:1023280002F01451D9261551DA22DEC416F6DDC49E
:1023380017F6000E0A6F6B0E096F16C60BF617C656
:102348000CF6000E0E6F010E0D6FCD0E0F6F050E01
:10235800106F000E126F010E116F21EC13F00009BF
:10236800D8A4B9EF11F0BBEF11F0BDEF11F0CEEF2B
:1023780011F0010EF8EC13F09C0E0601076F2E0EFB
:10238800086F24EC16F0C00E0601076F2C0E086FBC
:1023980033EC16F01200060120EE02F01451D92693
:1023A8001551DA22CB0EDE1807E1050EDE18D8A487
:1023B800E0EF11F0E2EF11F003EF12F0010E51EC33
:1023C80013F0340E0601076F150E086F230EF66E14
:1023D800150EF76EF86A0900F5C416F60900F5C47B
:1023E80017F602D801EF12F00500FA6E1651FD6ECD
:1023F8001751FE6EFF6AFA50120006EF12F0000E37
:1024080051EC13F0020E39EC10F0120020EF12F02C
:102418003DEC17F043EF12F011EC15F043EF12F01A
:1024280034EC17F043EF12F02BEC17F043EF12F0F7
:10243800F0EC15F043EF12F00501A5510601036F0A
:10244800046B0451000AD8B42CEF12F01CEF12F000
:102458000351010AD8B40CEF12F0030AD8B410EFF4
:1024680012F0010AD8B414EF12F0070AD8B410EF2A
:1024780012F0010AD8B418EF12F01CEF12F0120093
:10248800FAC470F5FBC471F5F6C472F5F7C473F5B8
:10249800F8C474F5F5C475F5E2EC17F0E806D8A4AD
:1024A80058EF12F05AEF12F05EEF12F09AEC0BF0C0
:1024B80070EF12F005019851D8B465EF12F067EF8C
:1024C80012F070EF12F09BC5D9F49CC5DAF49B4B5F
:1024D8009C2BDF50C2EC17F075C5F5F474C5F8F401
:1024E80073C5F7F472C5F6F471C5FBF470C5FAF458
:1024F80011006EEC16F0340E0601076F150E086F0A
:10250800230EF66E150EF76EF86A0900F5C41CF670
:102518000900F5C41DF602D89BEF12F00500FA6E0B
:102528001C51FD6E1D51FE6EFF6AFA50120095ECAB
:102538000FF02AEC15F0460E0601076F1B0E086F08
:1025480051EC16F0C00E0601076F280E086F8EECCE
:1025580017F0618E618C9590958A13EC0DF055EF0C
:1025680000F0010E0101E66F000EE76F000EE86F44
:10257800000EE96FED69EE69660EF36FFE0EF46FFB
:10258800660EF56FFE0EF66F7F0EF86F7A8A7A8CFC
:102598007A867A88EB85EB87EC81E20E0601076F75
:1025A8002F0E086F42EC16F00101EB95E68FEB91C8
:1025B800EB95E68F050EE82EFED700000000000020
:1025C80000000000000000000101EA91EA95EB8597
:1025D8001200E60EF66E2F0EF76E000EF86E09006A
:1025E800F5C4D2F50900F5C4D3F50900F5C4D4F54E
:1025F800080EF66E2F0EF76E000EF86E01EE2AF139
:1026080010EE0AF00900F5C4EEF4E550E150FAE1E5
:1026180001EE98F1360EEE6AE806FDE101EE1FF1D3
:102628000B0EEE6AE806FDE1080E666E000E676E98
:10263800000E686E00017DEF12F0000E0601136FA8
:10264800DEEC14F00009D8A42CEF13F02EEF13F0F1
:102658004EEF13F0010E0501986F09C699F50AC6E9
:102668009AF5010EA36F0BC69BF50CC69CF50DC61B
:102678009DF50EC69EF50FC69FF510C6A0F511C6AE
:10268800A1F512C6A2F5000EA46F1BEC14F0010E02
:102698000601136F0601135112000601096F0501A7
:1026A800D25106010919D8A45CEF13F05EEF13F0BC
:1026B80060EF13F07DEF13F0619C619E0501D20578
:1026C800D8A469EF13F06BEF13F074EF13F07EECFE
:1026D80013F015EC11F0000E0501D26F7BEF13F02B
:1026E800D0EC13F0B5EC12F0010E0501D26F618E3B
:1026F800618C1200000E0101E66F000EE76F000EFC
:10270800E86F000EE96F000EED6F000EEE6F000E21
:10271800F36F000EF46F000EF56F000EF66F000EEB
:10272800F86F000EE46F000EEC6F7A9A7A9C7A9636
:102738007A98EB95EB97E20E0601076F2F0E086F5C
:1027480042EC16F01200B5EF13F07EEC17F0CFEF65
:1027580013F0CAEC17F0CFEF13F0C6EC17F0CFEF79
:1027680013F00501A551836F846B8451000AD8B416
:10277800C0EF13F0CFEF13F08351000AD8B4A9EFDC
:1027880013F0020AD8B4ADEF13F0060AD8B4B1EFCB
:1027980013F0CFEF13F01200000E0101E66F000EE8
:1027A800E76F000EE86F000EE96F000EF96F000E7C
:1027B800EA6F000EEB6F000EEC6F000EED6F000E6F
:1027C800EE6F000EF86F0EEC17F0EE0E0601076FB5
:1027D8002F0E086F33EC16F0EC0E0601076F2F0E64
:1027E800086F24EC16F012000601096F0601095162
:1027F800050DBA0EF324D96E050EF420DA6EDE50FC
:10280800DE10D8B40AEF14F00CEF14F01AEF14F03D
:102818000951050DBE0EF324D96E050EF420DA6EAB
:10282800010EDF6E0501AC07D8A0AD071200050147
:102838009D519E11D8B423EF14F025EF14F036EF14
:1028480014F09DC507F69EC508F65EEC17F0050165
:10285800A351D8B432EF14F034EF14F036EF14F07B
:10286800D9EC17F005019951992589EC17F0D6ECA8
:1028780017F01200000E0501986F000E9A6F996903
:10288800000E9B6F000E9C6F000E9F6F000EA06FD6
:10289800BAEC17F0ACEC17F0B1EC17F002D85FEF18
:1028A80014F00500FA6E0501B851FD6EB951FE6EBF
:1028B800FF6AFA501200120089AC65EF14F067EF56
:1028C80014F075EF14F09E0E05018B6F230E8C6FBC
:1028D800CB0E8D6F050E8E6F020EE8EC0FF081EFB8
:1028E80014F09E0E05018B6F230E8C6FC90E8D6F31
:1028F800050E8E6F020EE8EC0FF01200FAC405F612
:10290800FBC406F66C9A0501CE51CF11D8B48FEFEF
:1029180014F091EF14F09DEF14F002D89DEF14F02D
:102928000500FA6ECE51FD6ECF51FE6EFF6AFA5069
:10293800120006C6FBF405C6FAF41100BAEC17F04B
:10294800ACEC17F018EC17F0B1EC17F00101E69FAA
:10295800EDEC16F00101EB91EB95E68F050EE82EF4
:10296800FED700000000000000000000000000008A
:102978000101EA91EA95EB8512000A6E0A50050DED
:10298800BA0EF324D96E050EF420DA6EDEC48BF588
:10299800DDC48CF50A50050DBC0EF324D96E050E66
:1029A800F420DA6EDEC48DF5DDC48EF50A50E8EC4D
:1029B8000FF01200010E0601076F05019851D8A407
:1029C800E8EF14F0EAEF14F0F5EF14F00101E4AFCA
:1029D800F0EF14F0F2EF14F0F5EF14F0000E06012A
:1029E800076F0601075112000501D051D111D8B463
:1029F80000EF15F002EF15F00EEF15F002D80EEF0C
:102A080015F00500FA6ED051FD6ED151FE6EFF6AC9
:102A1800FA5012000401319D120089A216EF15F038
:102A280018EF15F01BEF15F00501A64BA72B0501B4
:102A3800AA51A65DAB51A759D8A025EF15F027EFED
:102A480015F029EF15F0F0EC15F012004E0E060106
:102A5800076F270E086FA2EC17F0140E0601076F18
:102A6800240E086F9DEC17F0FC0E0601076F2F0E61
:102A7800086F51EC16F05AEC15F012000501A1513F
:102A8800A211D8B44AEF15F04CEF15F052EF15F03B
:102A9800A1C501F5A2C502F572EC17F0D8800501B1
:102AA8009935B6EC17F0DFEC17F0120062AE5FEF65
:102AB80015F0F0EF15F0000E0501A56F000EA76FD9
:102AC800000EA66F000EA96F000EA86F000EAB6F68
:102AD800000EAA6F46EC17F012000501B451B511AB
:102AE800D8B479EF15F07BEF15F087EF15F002D821
:102AF80087EF15F00500FA6EB451FD6EB551FE6E04
:102B0800FF6AFA50120012000501B251B311D8B48D
:102B180090EF15F092EF15F09EEF15F002D89EEFAA
:102B280015F00500FA6EB251FD6EB351FE6EFF6AE4
:102B3800FA50120012000501B051B111D8B4A7EF34
:102B480015F0A9EF15F0B5EF15F002D8B5EF15F0AF
:102B58000500FA6EB051FD6EB151FE6EFF6AFA5073
:102B680012001200060107510903F3C40BF6F4C45E
:102B78000CF607510A03F3500C2708510903F350C8
:102B88000C270BC607F60CC608F61200600E0101EA
:102B9800046F000E036F7F0E066FFA0E0601076FB3
:102BA8002F0E086F9DEC17F06C9A768A800E010143
:102BB800056F12000501826F82C5A5F5000E05019B
:102BC800A76F000EA66F000EA96F020EA86F000E69
:102BD800AB6F3C0EAA6F1200000E0501A56F000E28
:102BE800A76F000EA66F000EA96F000EA86F000E4B
:102BF800AB6F000EAA6FEEEC17F0120005018B6F99
:102C08008BC5A5F5000E0501A76F000EA66F000E77
:102C1800A96F3C0EA86F000EAB6F3C0EAA6F120096
:102C2800600E00017A6F400E7C6F000E7E6F080EFA
:102C3800806F000E7F6F000E816F000E826F120092
:102C4800060107510811D8B42CEF16F02EEF16F034
:102C580032EF16F007C6B8F508C6B9F51200060136
:102C680007510811D8B43BEF16F03DEF16F041EFCD
:102C780016F007C6B6F508C6B7F5120006010751E3
:102C88000811D8B44AEF16F04CEF16F050EF16F0D2
:102C980007C623F508C624F51200060107510811D6
:102CA800D8B459EF16F05BEF16F05FEF16F007C6D1
:102CB800AEF508C6AFF5120065EC17F0030AD8A404
:102CC80068EF16F06AEF16F06DEF16F0010EC1EC22
:102CD80014F0120014EC16F02DEC0FF0CAEC15F0FD
:0E2CE8006CEC17F0F5EC17F0D1EC10F01200C8
:102CF800FAC485F5FBC486F5699271EC15F086C5B2
:102D0800FBF485C5FAF41100FAC487F5FBC488F50D
:102D1800699488EC15F088C5FBF487C5FAF41100AE
:102D2800FAC489F5FBC48AF569969FEC15F08AC543
:102D3800FBF489C5FAF411007A8A7A8C7A867A8843
:102D48000101EB85EB83EB8FEC81EC831200010131
:102D5800E4B9B1EF16F0B4EF16F0010EB5EF16F0C6
:102D6800000E12000101E7BBBCEF16F0BFEF16F032
:102D7800010EC0EF16F0000E12000101E4B7C7EF14
:102D880016F0CAEF16F0010ECBEF16F0000E120087
:102D98000101ECBDD2EF16F0D5EF16F0010ED6EF1B
:102DA80016F0000E12000101ECBBDDEF16F0E0EFAB
:102DB80016F0010EE1EF16F0000E12000101E4A773
:102DC800E8EF16F0EBEF16F0010EECEF16F0000E40
:102DD80012007A8A7A8C7A867A880101EB85EB83ED
:102DE800EB8FEC81EC831200FAC480F5FBC481F50B
:102DF80003EC17F081C5FBF480C5FAF41100040157
:102E080031AD09EF17F00BEF17F00DEF17F0F8ECF5
:102E180014F012007A9A7A9C7A967A98000E010138
:102E2800EB6F000EEC6F12007A9A7A9C7A967A9879
:102E3800000E0101EB6F000EEC6F1200F28E030022
:102E48000000000000000000000000001200E00E7A
:102E58000601006F2B0E016F020E89EC10F01200B4
:102E68009C0E0601006F2F0E016F010E89EC10F009
:102E78001200A40E0601006F2F0E016F000E89ECE0
:102E880010F0120062AE4BEF17F0EEEF17F00101F1
:102E9800059F1200D00E016ECA0EE82EFED7012E35
:102EA800FCD71200F1C11EF5D8901E321E501C6EC0
:102EB8001D6A1200060108510101EE6F07C6EDF107
:102EC8001200A4C50AF5000E0501A46F0A501200ED
:102ED800010E0501D26FB5EC12F01200025001018B
:102EE800EE6F01C5EDF1120029C51CF5000E296E23
:102EF8001C501200010EDEEC15F0EBEC17F012007E
:102F0800000102030405060708090601076F07C642
:102F1800F2F1120007C6D0F508C6D1F5120007C6AF
:102F2800B0F508C6B1F5120007C6B2F508C6B3F584
:102F3800120007C6CEF508C6CFF5120007C6B4F5CD
:102F480008C6B5F51200DCEC17F00101E78712009E
:102F58000101EC9BEC9DEC991200000E0101E56F5C
:102F6800E5851200016E01C5F2F11200000E0101A3
:102F7800EA6F12001C6E1CC5F0F112001C6E1CC515
:102F8800F0F11200050EDEEC15F01200030EDEEC77
:102F980015F01200040E02EC16F01200020E02ECFC
:102FA80016F012000101E68B12000101E68D1200F5
:102FB8000101E69D12000101E68B12000501D251C4
:102FC80012000101EF5112000101EF51120001013D
:102FD800058F12000101059F1200000E1200013832
:012FE80018D0
:102FEA001200120012001100120012001200120048
:042FFA0012001200AF
:020000040030CA
:0B000000ECFFFFFF9FFFFF7FFFFFFFF3
:02001800FFFFE8
:00000001FF
