:0400000055EF00F0C8
:10000800650CA00BA60BAC0B650C650C650C650CA0
:10001800650C650C650C650C650C650C650C650C50
:10002800650C650C650C650C650C650C650C650C40
:10003800650C650C650C650CDE0B650C3E0A960AB2
:10004800650C650C650C650C650C650C650C650C20
:10005800650C650C650C650C650C650C650C650C10
:10006800650C650C650C650C650C650C650C650C00
:10007800650C650C650CF3086B091B0731062A0033
:10008800650C650C650C650C650C2A002A002A00B5
:10009800650C650C650C650C650C650C650C650CD0
:0600A800FF0047EF13F01A
:10150000004E23A62800000000F6260000543010EC
:101510002BEA2D00001E26B0271A316E317A30DEFC
:101520002E0000262E00000228563100000000A6E2
:101530003000001A2D7A3126300000D8300000002B
:101540000501B36F7CEF0BF01F0EF66E150EF76EF4
:10155000F86A0900F5C4B1F50900F5C4B2F502D87E
:10156000BBEF0AF00500FA6EB151FD6EB251FE6E8E
:10157000FF6AFA5012000009D8A4C1EF0AF0C3EFC5
:101580000AF09EEF0BF0010E246E9EEF0BF024503C
:10159000D8B4CDEF0AF0CFEF0AF0EBEF0AF01B0E54
:1015A000F66E150EF76EF86A0900F5C4B1F509007C
:1015B000F5C4B2F502D8E6EF0AF00500FA6EB151B3
:1015C000FD6EB251FE6EFF6AFA501200256E000EDB
:1015D000246E9EEF0BF0270E2524D96EDA6A050ED5
:1015E000DA221B0EF66E150EF76EF86A0900F5C4C6
:1015F000B1F50900F5C4B2F502D808EF0BF005000B
:10160000FA6EB151FD6EB251FE6EFF6AFA501200D1
:10161000DF6E252A090E256410EF0BF012EF0BF098
:101620009EEF0BF0000E256E9EEF0BF0190EF66E7E
:10163000150EF76EF86A0900F5C4B1F50900F5C496
:10164000B2F502D834EF0BF00500FA6EB151FD6E21
:10165000B251FE6EFF6AFA50270E2524D96EDA6A5F
:10166000050EDA22DF501200252A090E25643BEF11
:101670000BF03DEF0BF09EEF0BF012EF0BF0000EB6
:10168000256E1D0EF66E150EF76EF86A0900F5C48C
:10169000B1F50900F5C4B2F502D858EF0BF005001A
:1016A000FA6EB151FD6EB251FE6EFF6AFA50120031
:1016B0000501B46FB405D8A460EF0BF062EF0BF036
:1016C00064EF0BF09EEF0BF0020EB419D8A46BEF91
:1016D0000BF06DEF0BF06FEF0BF09EEF0BF0030EC6
:1016E000B419D8A476EF0BF078EF0BF07AEF0BF08B
:1016F0009EEF0BF09EEF0BF00501B351B16FB26B93
:10170000B251000AD8B487EF0BF09EEF0BF0B15145
:10171000010AD8B4A4EF0AF0030AD8B4C7EF0AF05C
:10172000010AD8B416EF0BF0070AD8B412EF0BF089
:10173000010AD8B43FEF0BF09EEF0BF0010E120040
:101740000101EAA5A6EF0BF0A8EF0BF0BCEF0BF040
:10175000000EEA6FE585ED69EE6902D8BAEF0BF08D
:101760000500FA6E2050FD6E2150FE6EFF6AFA50A1
:10177000040E12005FEF0CF0EAA7C1EF0BF0C3EF0D
:101780000BF00FEF0CF0EA97EFEC17F018C522F50D
:1017900019C523F5000E266E02D8D9EF0BF005000F
:1017A000FA6E2050FD6E2150FE6EFF6AFA50010E57
:1017B0001200E806D8A4DFEF0BF0E1EF0BF00BEF1F
:1017C0000CF00101E4A9E7EF0BF0E9EF0BF007EFF4
:1017D0000CF0E5ABEEEF0BF0F0EF0BF007EF0CF0D9
:1017E00002D8FDEF0BF00500FA6E2050FD6E21507F
:1017F000FE6EFF6AFA50030E12000009D8A403EF30
:101800000CF005EF0CF007EF0CF00101E78D010182
:10181000E79D5FEF0CF00101E78D5FEF0CF0E4A9AD
:1018200014EF0CF016EF0CF03DEF0CF0E5AB1BEFF6
:101830000CF01DEF0CF05FEF0CF0E7BB22EF0CF0AB
:1018400024EF0CF05FEF0CF002D831EF0CF0050044
:10185000FA6E2050FD6E2150FE6EFF6AFA50030EA4
:1018600012000009D8A437EF0CF039EF0CF05FEF4D
:101870000CF00101E78D5FEF0CF0E5A142EF0CF0F9
:1018800044EF0CF05FEF0CF002D851EF0CF00500C4
:10189000FA6E2050FD6E2150FE6EFF6AFA50020E65
:1018A0001200E806D8A457EF0CF059EF0CF05DEFEA
:1018B0000CF00101E79D5FEF0CF00101E78D0101E4
:1018C000E6991200FAC40AF5FBC40BF5F6C40CF550
:1018D000F7C40DF5F8C40EF5F5C40FF5B4EC18F027
:1018E000E806D8A476EF0CF078EF0CF07CEF0CF063
:1018F000B6EC0EF00CEF0DF005016051D8B483EF9B
:101900000CF085EF0CF008EF0DF09BEC17F00009E0
:10191000D8B48DEF0CF08FEF0CF098EF0CF0030EB5
:1019200005016C6F0101EC9B4CEC15F0EFEF0CF036
:10193000A6EC17F00009D8B4A0EF0CF0A2EF0CF061
:10194000BDEF0CF07AEC17F00009D8A4AAEF0CF068
:10195000ACEF0CF0B4EF0CF00101ECA9B2EF0CF01D
:10196000B4EF0CF0BDEF0CF0010E05016C6F01013E
:10197000EC9976EC18F0EFEF0CF085EC17F000091D
:10198000D8B4C5EF0CF0C7EF0CF0E0EF0CF07AEC38
:1019900017F00009D8A4CFEF0CF0D1EF0CF0D9EF7D
:1019A0000CF00101ECA9D7EF0CF0D9EF0CF0E0EF4F
:1019B0000CF0020E05016C6F0101EC99B9EF0CF00F
:1019C00090EC17F00009D8B4E8EF0CF0EAEF0CF057
:1019D000EFEF0CF0040E05016C6F0101EC9D0501A9
:1019E0006C51D8B4F6EF0CF0F8EF0CF00CEF0DF0F2
:1019F000000E606F02D806EF0DF00500FA6E8851F8
:101A0000FD6E8951FE6EFF6AFA5012000CEF0DF068
:101A10000101EC99EC9DEC9B0FC5F5F40EC5F8F4B3
:101A20000DC5F7F40CC5F6F40BC5FBF40AC5FAF4C2
:101A3000110005017FBF25EF0DF07F5108E17E0504
:101A4000D8A025EF0DF027EF0DF0A4EF0DF0000E5C
:101A50000601446F000E436F43C630F644C631F6AC
:101A6000000E336F050E326F79EC16F08C0E060106
:101A70003025D96E050E3121DA6EDE50DE10D8B475
:101A800044EF0DF046EF0DF091EF0DF043C630F648
:101A900044C631F6000E336F050E326F79EC16F046
:101AA000900E06013025D96E050E3121DA6EDF5019
:101AB000D8A45DEF0DF05FEF0DF091EF0DF043C690
:101AC00030F644C631F6000E336F050E326F79ECF6
:101AD00016F08C0E060130253D6F050E31213E6F4C
:101AE00043C630F644C631F6000E336F050E326F32
:101AF00079EC16F08C0E06013025D96E050E3121D9
:101B0000DA6EDEC441F6DDC442F602D891EF0DF084
:101B10000500FA6E4151FD6E4251FE6EFF6AFA50A9
:101B200012000601434B442B44BFA0EF0DF044517B
:101B300009E1040E435DD8A0A0EF0DF0A2EF0DF077
:101B40002CEF0DF019EF0DF0E6EC17F019EF0DF09A
:101B500012000601266F1AEF0EF0B4EC18F000091F
:101B6000D8A4B5EF0DF0B7EF0DF0C3EF0DF0480EB0
:101B700006011A6F240E1B6FC60E1C6F050E1D6F1B
:101B8000010E9BEC0FF095BAC8EF0DF0CBEF0DF006
:101B9000010ECCEF0DF0000EFF0A0601246F243B6E
:101BA000244795502419DF0B2419956E34EF0EF05D
:101BB000B4EC18F00009D8A4E0EF0DF0E2EF0DF05E
:101BC000EEEF0DF0480E06011A6F240E1B6FC50EC6
:101BD0001C6F050E1D6F010E9BEC0FF095B8F3EF17
:101BE0000DF0F6EF0DF0010EF7EF0DF0000EFF0A0D
:101BF0000601246F243B95502419EF0B2419956E90
:101C000034EF0EF0B4EC18F00009D8A40AEF0EF08F
:101C10000CEF0EF034EF0EF0480E06011A6F240E92
:101C20001B6FC50E1C6F050E1D6F010E9BEC0FF098
:101C300034EF0EF006012651246F256B2551000A62
:101C4000D8B425EF0EF034EF0EF02451000AD8B4CA
:101C5000ADEF0DF0010AD8B4D8EF0DF0030AD8B4F7
:0A1C600002EF0EF034EF0EF0120058
:101C6C00FAC403F5FBC404F5F6C405F5F7C406F590
:101C7C00F8C407F5F5C408F5B4EC18F0E806D8A4D8
:101C8C004AEF0EF04CEF0EF050EF0EF0A0EC0BF014
:101C9C00A9EF0EF005016051D8B457EF0EF059EFD3
:101CAC000EF0A4EF0EF00101EBA55FEF0EF061EF6B
:101CBC000EF06CEF0EF0EAA566EF0EF068EF0EF08A
:101CCC006CEF0EF0E8EC14F0A9EF0EF0EBAF71EF47
:101CDC000EF073EF0EF090EF0EF0EAAF78EF0EF01F
:101CEC007AEF0EF090EF0EF005016B51D8B481EF46
:101CFC000EF083EF0EF08CEF0EF0000E6B6F010107
:101D0C00EA91EA9F05EC16F0A9EF0EF076EC18F0CC
:101D1C0068EF0EF0EBA395EF0EF097EF0EF0A9EF36
:101D2C000EF0EAA39CEF0EF09EEF0EF0A9EF0EF072
:101D3C00AEEC18F00101EA93A9EF0EF0000E0101D0
:101D4C00EA6FA9EF0EF008C5F5F407C5F8F406C55F
:101D5C00F7F405C5F6F404C5FBF403C5FAF4110059
:101D6C000101ECABBCEF0EF0BEEF0EF0D1EF0EF0BC
:101D7C00010E266E02D8CDEF0EF00500FA6E205043
:101D8C00FD6E2150FE6EFF6AFA50050E1200010125
:101D9C00EC9B30EF0FF0E5AFD6EF0EF0D8EF0EF076
:101DAC00EBEF0EF0020E266E02D8E7EF0EF00500F8
:101DBC00FA6E2050FD6E2150FE6EFF6AFA50050E31
:101DCC0012000101E59F30EF0FF0E7A5F0EF0EF0E8
:101DDC00F2EF0EF005EF0FF0030E266E02D801EFB6
:101DEC000FF00500FA6E2050FD6E2150FE6EFF6A5A
:101DFC00FA50050E12000101E79530EF0FF0E7A342
:101E0C000AEF0FF00CEF0FF01FEF0FF0040E266E21
:101E1C0002D81BEF0FF00500FA6E2050FD6E21501A
:101E2C00FE6EFF6AFA50050E12000101E79330EFC7
:101E3C000FF0050E266E02D82EEF0FF00500FA6E8D
:101E4C002050FD6E2150FE6EFF6AFA50050E1200F6
:101E5C000101E597EC99E6991200000E936E800E45
:101E6C00946E110E956E170E8D6E000E8E6EC20E48
:101E7C008F6E030E0401166F000E206F000E2A6F7A
:101E8C00000E176F000E216F000E2B6F000E186FD7
:101E9C00E00E226F390E2C6F370E196FE00E236F88
:101EAC00FB0E2D6F3F0E1A6FE00E246FFB0E2E6F84
:101EBC00200E0301126F200E136F000E156F000E13
:101ECC00166F210E0F6F210E106F110E526F020E36
:101EDC00536F170E546F0E0EAD6F1C0E276F0D0E39
:101EEC00AE6F1D0E266F000E04011B6F000E1C6FD3
:101EFC00000E1D6F000E576F000E586F000E596FBD
:101F0C00000E256F000E266F000E276F400E2F6FF0
:101F1C00400E306F000E316F960E0601306F310E91
:101F2C00316F5DEC18F0768812000601236F010EFC
:101F3C000601226F2351050D8C0EF324D96E050E6C
:101F4C00F420DA6EDE50DE10D8B4AFEF0FF0B1EF44
:101F5C000FF0C3EF0FF02351050D900EF324D96E43
:101F6C00050EF420DA6EDF50D8A4BFEF0FF0C1EFEE
:101F7C000FF0C3EF0FF0000E226F22C620F6216B7C
:101F8C002351050D8C0EF324D96E050EF420DA6E58
:101F9C001AC6DEF41BC6DDF42351050D8E0EF32498
:101FAC00D96E050EF420DA6E1CC6DEF41DC6DDF407
:101FBC002351050D900EF324D96E050EF420DA6E24
:101FCC00DF6A205105017E270601215105017F237F
:101FDC001200000E0601376F000E366F36C630F653
:101FEC0037C631F6000E336F050E326F79EC16F0F2
:101FFC008C0E06013025D96E050E3121DA6EDE6AA3
:10200C00DD6A36C630F637C631F6000E336F050E74
:10201C00326F79EC16F08E0E06013025D96E050E56
:10202C003121DA6EDE6ADD6A36C630F637C631F635
:10203C00000E336F050E326F79EC16F0900E060120
:10204C003025D96E050E3121DA6EDF6A364B372B0F
:10205C0037BF3AEF10F0375109E1040E365DD8A0C6
:10206C003AEF10F03CEF10F0F4EF0FF0000E05011A
:10207C007F6F000E7E6F12000601356F000E060199
:10208C00346F3551050D8C0EF324D96E050EF420EA
:10209C00DA6EDE50DE10D8B456EF10F058EF10F0B8
:1020AC006AEF10F03551050D900EF324D96E050E24
:1020BC00F420DA6EDF50D8A466EF10F068EF10F061
:1020CC006AEF10F0010E346F34C632F6336B3551B3
:1020DC00050D8C0EF324D96E050EF420DA6EDE6A33
:1020EC00DD6A3551050D8E0EF324D96E050EF420E4
:1020FC00DA6EDE6ADD6A3551050D900EF324D96E69
:10210C00050EF420DA6EDF6A325105017E5F06019E
:10211C00335105017F5B120004EC17F0400E0601F1
:10212C00306F150E316F230EF66E150EF76EF86AC2
:10213C000900F5C445F60900F5C446F602D8B0EF1F
:10214C0010F00500FA6E4551FD6E4651FE6EFF6AA9
:10215C00FA501200EFEC0FF0EDEC15F0520E0601F8
:10216C00306F1B0E316F22EC17F0140E0601306F1E
:10217C002A0E316F5DEC18F0618E618C9590958A0A
:10218C00000E0501746F000E756F000E766F000E59
:10219C00776FD00E0601306F220E316F53EC18F0B2
:1021AC00ABEC18F019EC0DF055EF00F00601296FAF
:1021BC0089A2E3EF10F0E5EF10F004EF11F0050148
:1021CC0070516E5D71516F59D8A0EFEF10F0F1EFB7
:1021DC0010F000EF11F002D8FEEF10F00500FA6ECF
:1021EC0006012751FD6E2851FE6EFF6AFA5012004F
:1021FC0023EF11F0B2EC16F023EF11F005016E4B4A
:10220C006F2B72516E5D73516F59D8A010EF11F096
:10221C0012EF11F023EF11F0B2EC16F002D823EF0D
:10222C0011F00500FA6E05018051FD6E8151FE6EB4
:10223C00FF6AFA500601295112001200618A000E41
:10224C0061BE010E0601326F619E550E606EAA0EC4
:10225C00606E6090000E686E000E676E080E666E03
:10226C00550E606EAA0E606E608032B102D0619E17
:10227C0001D0618E7D827D847D868088808C848671
:10228C008488848A848C69926190980E0601306FE0
:10229C00310E316F71EC18F07382699461929A0E61
:1022AC000601306F310E316F67EC18F0738469964C
:1022BC0061949C0E0601306F310E316F62EC18F098
:1022CC0073861200010E05017427000E7523762308
:1022DC0077237F0E741506011A6F000E0501751514
:1022EC0006011B6F000E0501761506011C6F000E12
:1022FC000501771506011D6F1A511B111C111D11BB
:10230C00D8A48BEF11F08DEF11F0A6EF11F095B072
:10231C0092EF11F095EF11F0010E96EF11F0000E07
:10232C00FF0A1A6F95501A19FE0B1A19956E000EAA
:10233C000501746F000E756F000E766F000E776FCF
:10234C001200040E0101E66F800EE76F080EE86FB5
:10235C00000EE96F020EF96F000EEA6F000EEB6FC4
:10236C00000EEC6FEC83EC81000EED6F000EEE6F47
:10237C000F0EF86F000EFA6F64EC17F00101EB9181
:10238C00EB95E68F050EE82EFED70000000000004E
:10239C0000000000000000000101EA91EA95EB85C5
:1023AC00920E0601306F310E316FF5EC16F0900E77
:0E23BC000601306F310E316FE6EC16F01200A4
:1023CC00FAC412F5FBC413F5F6C414F5F7C415F5ED
:1023DC00F8C416F5F5C417F5B4EC18F0E806D8A453
:1023EC00FAEF11F0FCEF11F000EF12F0A0EC0BF093
:1023FC0017EF12F005016051D8B407EF12F009EF96
:10240C0012F015EF12F0BAEC18F067C5D9F468C5E4
:10241C00DAF4DF6E0501674B682B17EF12F0BAEC9C
:10242C0018F017C5F5F416C5F8F415C5F7F414C56E
:10243C00F6F413C5FBF412C5FAF41100060120EEF4
:10244C0002F03D51D9263E51DA22DEC43FF6DDC4FE
:10245C0040F6000E336F6B0E326F3FC634F640C63B
:10246C0035F6000E376F010E366FA40E386F050E61
:10247C00396F000E3B6F010E3A6F7BEC13F00009C5
:10248C00D8A44BEF12F04DEF12F04FEF12F060EFBB
:10249C0012F0010EA2EC14F0360E0601306F300E65
:1024AC00316FE6EC16F0620E0601306F2E0E316FB6
:1024BC00F5EC16F01200060120EE02F03D51D92683
:1024CC003E51DA22A20EDE1807E1050EDE18D8A462
:1024DC0072EF12F074EF12F095EF12F0010EABECFC
:1024EC0013F0400E0601306F150E316F230EF66E91
:1024FC00150EF76EF86A0900F5C43FF60900F5C42D
:10250C0040F602D893EF12F00500FA6E3F51FD6EC3
:10251C004051FE6EFF6AFA50120098EF12F0000E56
:10252C00ABEC13F0020E42EC10F01200B2EF12F012
:10253C000AEC18F0D5EF12F0BBEC15F0D5EF12F059
:10254C0001EC18F0D5EF12F0F8EC17F0D5EF12F013
:10255C00B2EC16F0D5EF12F005016D5106012A6FA1
:10256C002B6B2B51000AD8B4BEEF12F0AEEF12F069
:10257C002A51010AD8B49EEF12F0030AD8B4A2EF84
:10258C0012F0010AD8B4A6EF12F0070AD8B4A2EFE1
:10259C0012F0010AD8B4AAEF12F0AEEF12F012004A
:1025AC00FAC4B5F5FBC4B6F5F6C4B7F5F7C4B8F57F
:1025BC00F8C4B9F5F5C4BAF5B4EC18F0E806D8A42B
:1025CC00EAEF12F0ECEF12F0F0EF12F0A0EC0BF0DF
:1025DC0002EF13F005016051D8B4F7EF12F0F9EFE8
:1025EC0012F002EF13F063C5D9F464C5DAF4634B4F
:1025FC00642BDF5091EC18F0BAC5F5F4B9C5F8F4BA
:10260C00B8C5F7F4B7C5F6F4B6C5FBF4B5C5FAF41E
:10261C001100010E0101E66F000EE76F000EE86F6E
:10262C00000EE96FED69EE69660EF36FFE0EF46F46
:10263C00660EF56FFE0EF66F7F0EF86F7A8A7A8C47
:10264C007A867A88EB85EB87EC81860E0601306FF3
:10265C00310E316F13EC17F00101EB95E68FEB9116
:10266C00EB95E68F050EE82EFED70000000000006B
:10267C0000000000000000000101EA91EA95EB85E2
:10268C0012008A0EF66E310EF76E000EF86E09000F
:10269C00F5C4C4F50900F5C4C5F50900F5C4C6F5C3
:1026AC00920EF66E300EF76E000EF86E01EE27F1FC
:1026BC0010EE0AF00900F5C4EEF4E550E150FAE131
:1026CC0001EE60F1450EEE6AE806FDE101EE1AF14D
:1026DC000D0EEE6AE806FDE1080E666E000E676EE2
:1026EC00000E686E000192EF10F0000E06013C6FB8
:1026FC0088EC15F00009D8A486EF13F088EF13F0DE
:10270C00A8EF13F0010E0501606F32C661F533C6F8
:10271C0062F5010E6B6F34C663F535C664F536C6CB
:10272C0065F537C666F538C667F539C668F53AC635
:10273C0069F53BC66AF5000E6C6FC5EC14F0010E22
:10274C0006013C6F06013C5112000601326F050177
:10275C00C45106013219D8A4B6EF13F0B8EF13F038
:10276C00BAEF13F0D7EF13F0619C619E0501C4051D
:10277C00D8A4C3EF13F0C5EF13F0CEEF13F0D8ECE1
:10278C0013F0A7EC11F0000E0501C46FD5EF13F098
:10279C0053EC14F00FEC13F0010E0501C46F618EB5
:1027AC00618C1200000E0101E66F000EE76F000E47
:1027BC00E86F000EE96F000EED6F000EEE6F000E6D
:1027CC00F36F000EF46F000EF56F000EF66F000E37
:1027DC00F86F000EE46F000EEC6F7A9A7A9C7A9682
:1027EC007A98EB95EB97860E0601306F310E316FB0
:1027FC0013EC17F0120001010991000E0A6F000E84
:10280C000B6F030E0C6F630E086FBF0E076F085132
:10281C000601326F0101075105017C6F32C67DF54F
:10282C009E0E0601306F310E316F53EC18F0A40E72
:10283C000601306F310E316F58EC18F06C9C768CB1
:10284C00350E0101096F120038EF14F043EC18F04B
:10285C0052EF14F099EC18F052EF14F095EC18F0CC
:10286C0052EF14F005016D51BE6FBF6BBF51000AE2
:10287C00D8B443EF14F052EF14F0BE51000AD8B4A0
:10288C002CEF14F0020AD8B430EF14F0060AD8B4C6
:10289C0034EF14F052EF14F01200000E0101E66F49
:1028AC00000EE76F000EE86F000EE96F000EF96F77
:1028BC00000EEA6F000EEB6F000EEC6F000EED6F6A
:1028CC00000EEE6F000EF86FD2EC17F0920E0601B0
:1028DC00306F310E316FF5EC16F0900E0601306F43
:0A28EC00310E316FE6EC16F0120019
:1028F800FAC42CF6FBC42DF66C9C7CC51AF67DC573
:102908001BF6D4EC15F005017A517B11D8B48FEF82
:1029180014F091EF14F09DEF14F002D89DEF14F02D
:102928000500FA6E7A51FD6E7B51FE6EFF6AFA5011
:1029380012002DC6FBF42CC6FAF411000601326F02
:1029480006013251050D8C0EF324D96E050EF420C4
:10295800DA6EDE50DE10D8B4B4EF14F0B6EF14F02F
:10296800C4EF14F03251050D900EF324D96E050E04
:10297800F420DA6E010EDF6E05017E07D8A07F070E
:102988001200050165516611D8B4CDEF14F0CFEFF0
:1029980014F0E0EF14F065C530F666C531F623ECA7
:1029A80018F005016B51D8B4DCEF14F0DEEF14F029
:1029B800E0EF14F0A8EC18F00501615161254EEC28
:1029C80018F0A5EC18F01200000E0501606F000E5B
:1029D800626F6169000E636F000E646F000E676FAF
:1029E800000E686F89EC18F07BEC18F080EC18F09A
:1029F80002D809EF15F00500FA6E05018A51FD6E3F
:102A08008B51FE6EFF6AFA501200120089AC0FEF6C
:102A180015F011EF15F01FEF15F0C20E06011A6F31
:102A2800240E1B6FA20E1C6F050E1D6F020E9BEC71
:102A38000FF02BEF15F0C20E06011A6F240E1B6F54
:102A4800A00E1C6F050E1D6F020E9BEC0FF01200FE
:102A5800FAC42EF6FBC42FF66C9E05017851791145
:102A6800D8B439EF15F03BEF15F047EF15F002D861
:102A780047EF15F00500FA6E7851FD6E7951FE6E3C
:102A8800FF6AFA5012002FC6FBF42EC6FAF41100A2
:102A980089EC18F07BEC18F0DCEC17F080EC18F0FF
:102AA8000101E69FB1EC17F00101EB91EB95E68F80
:102AB800050EE82EFED70000000000000000000010
:102AC800000000000101EA91EA95EB851200096E09
:102AD8000950050D8C0EF324D96E050EF420DA6E1C
:102AE800DEC41AF6DDC41BF60950050D8E0EF3245C
:102AF800D96E050EF420DA6EDEC41CF6DDC41DF6B0
:102B080009509BEC0FF01200010E0601306F050111
:102B18006051D8A492EF15F094EF15F09FEF15F0DF
:102B28000101E4AF9AEF15F09CEF15F09FEF15F057
:102B3800000E0601306F0601305112000501C25126
:102B4800C311D8B4AAEF15F0ACEF15F0B8EF15F033
:102B580002D8B8EF15F00500FA6EC251FD6EC351E8
:102B6800FE6EFF6AFA5012000401319D120089A21C
:102B7800C0EF15F0C2EF15F0C5EF15F005016E4B6B
:102B88006F2B050172516E5D73516F59D8A0CFEF4D
:102B980015F0D1EF15F0D3EF15F0B2EC16F01200E6
:102BA800010109A5DAEF15F0DCEF15F0E6EF15F0F5
:102BB800099106011B510101086F1AC607F1098125
:102BC800ECEF15F006011B510101086F1AC607F159
:102BD8001200540E0601306F280E316F71EC18F098
:102BE800380E0601306F250E316F6CEC18F0A20E0E
:102BF8000601306F310E316F22EC17F01DEC16F024
:102C08001200050169516A11D8B40DEF16F00FEFE3
:102C180016F015EF16F069C501F56AC502F537EC2F
:102C280018F0D8800501613585EC18F0B1EC18F082
:102C3800120062AE22EF16F0B2EF16F0000E050198
:102C48006D6F000E6F6F000E6E6F000E716F000ECD
:102C5800706F000E736F000E726F13EC18F0120095
:102C6800050186518711D8B43CEF16F03EEF16F0F7
:102C78004AEF16F002D84AEF16F00500FA6E8651B0
:102C8800FD6E8751FE6EFF6AFA50120012000501B0
:102C980084518511D8B453EF16F055EF16F061EF53
:102CA80016F002D861EF16F00500FA6E8451FD6E39
:102CB8008551FE6EFF6AFA5012001200050182511A
:102CC8008311D8B46AEF16F06CEF16F078EF16F0AF
:102CD80002D878EF16F00500FA6E8251FD6E835126
:102CE800FE6EFF6AFA5012001200060130513203DC
:102CF800F3C434F6F4C435F630513303F3503527B2
:102D080031513203F350352734C630F635C631F623
:102D18001200600E0101046F000E036F7F0E066F34
:102D2800A00E0601306F310E316F6CEC18F06C9A02
:102D3800800E0101056F12000501BD6FBDC56DF55F
:102D4800000E05016F6F000E6E6F000E716F020EA0
:102D5800706F000E736F3C0E726F1200000E05014B
:102D68006D6F000E6F6F000E6E6F000E716F000EAC
:102D7800706F000E736F000E726FC0EC18F01200C7
:102D880006011A6F1AC66DF5000E05016F6F000E69
:102D98006E6F000E716F3C0E706F000E736F3C0EFD
:102DA800726F1200600E00017A6F400E7C6F000E89
:102DB8007E6F080E806F000E7F6F000E816F000E11
:102DC800826F1200060130513111D8B4EEEF16F0BF
:102DD800F0EF16F0F4EF16F030C68AF531C68BF531
:102DE8001200060130513111D8B4FDEF16F0FFEF93
:102DF80016F003EF17F030C688F531C689F51200D2
:102E0800D6EC16F033EC0FF08DEC16F031EC18F030
:102E1800C7EC18F001EC14F024EC11F012000601D4
:102E280030513111D8B41BEF17F01DEF17F021EF17
:102E380017F030C620F531C621F5120006013051D1
:102E48003111D8B42AEF17F02CEF17F030EF17F044
:102E580030C680F531C681F512002AEC18F0030A55
:102E6800D8A439EF17F03BEF17F03EEF17F0010E3B
:062E78006BEC15F01200E6
:102E8000FAC414F6FBC415F6699234EC16F015C6B4
:102E9000FBF414C6FAF41100FAC416F6FBC417F6D4
:102EA00069944BEC16F017C6FBF416C6FAF4110041
:102EB000FAC418F6FBC419F6699662EC16F019C646
:102EC000FBF418C6FAF411007A8A7A8C7A867A882A
:102ED0000101EB85EB83EB8FEC81EC8312000101A8
:102EE000E4B975EF17F078EF17F0010E79EF17F0EE
:102EF000000E12000101E7BB80EF17F083EF17F01F
:102F0000010E84EF17F0000E12000101E4B78BEF01
:102F100017F08EEF17F0010E8FEF17F0000E120072
:102F20000101ECBD96EF17F099EF17F0010E9AEF43
:102F300017F0000E12000101ECBBA1EF17F0A4EF97
:102F400017F0010EA5EF17F0000E12000101E4A723
:102F5000ACEF17F0AFEF17F0010EB0EF17F0000E67
:102F600012007A8A7A8C7A867A880101EB85EB8363
:102F7000EB8FEC81EC831200FAC4BBF5FBC4BCF50B
:102F8000C7EC17F0BCC5FBF4BBC5FAF41100040193
:102F900031ADCDEF17F0CFEF17F0D1EF17F0A2EC76
:102FA00015F012007A9A7A9C7A967A98000E0101AE
:102FB000EB6F000EEC6F12007A9A7A9C7A967A98F0
:102FC000000E0101EB6F000EEC6F1200F28E030099
:102FD0000000000000000000000000001200F1C12D
:102FE000B1F50501D890B133B151186E196A1200CC
:102FF000640E0601276F2D0E286F020EDCEC10F018
:1030000012003A0E0601276F310E286F010EDCEC1C
:1030100010F01200420E0601276F310E286F000ECD
:10302000DCEC10F0120062AE18EF18F0C0EF18F0F0
:103030000101059F1200D00E016ECA0EE82EFED7C8
:10304000012EFCD71200060131510101EE6F30C68E
:10305000EDF112006CC509F5000E05016C6F095009
:103060001200010E0501C46F0FEC13F012000250A4
:103070000101EE6F01C5EDF1120026C518F5000E35
:10308000266E18501200010EA0EC16F0BDEC18F0E0
:103090001200000102030405060708090601306F4B
:1030A00030C6F2F1120030C67AF531C67BF5120057
:1030B00030C678F531C679F5120030C6C2F531C692
:1030C000C3F5120030C682F531C683F5120030C652
:1030D00084F531C685F5120030C6C0F531C6C1F59C
:1030E000120030C686F531C687F51200AEEC18F036
:1030F0000101E78712000101EC9BEC9DEC991200A5
:10310000000E0101E56FE5851200016E01C5F2F1C7
:103110001200000E0101EA6F1200186E18C5F0F1DE
:103120001200186E18C5F0F11200050EA0EC16F092
:103130001200030EA0EC16F01200040EC4EC16F000
:103140001200020EC4EC16F012000101E68B120010
:103150000101E68D12000101098112000101E69DC5
:1031600012000101E68B12000501C4511200010199
:10317000EF5112000101EF5112000101058F120001
:0D3180000101059F1200000E120001381819
:10318E0012001200120011001200120012001200A2
:08319E001200120012001200E1
:020000040030CA
:0B000000ECFFFFFF9FFFFF7FFFFFFFF3
:02001800FFFFE8
:00000001FF
